:020000040800F2
:10000000A8A300202903000821730008B763000893
:100010001D730008C50D000871DE00080000000017
:10002000000000000000000000000000690200085D
:100030007D25000800000000C50200084FAA000846
:100040004303000843030008430300084303000878
:1000500043030008430300087F250008430300080A
:1000600043030008430300088925000843030008F0
:10007000E91900084303000843030008430300088C
:100080004303000843030008430300084303000838
:100090006D0E000843030008430300089325000881
:1000A0004303000843030008430300084303000818
:1000B0004303000843030008430300084303000808
:1000C00043030008430300084303000843030008F8
:1000D0004303000835B400084303000895B4000842
:1000E00043030008430300084303000843030008D8
:1000F00043030008430300084303000843030008C8
:1001000043030008430300084303000843030008B7
:1001100043030008430300084303000843030008A7
:1001200043030008F9190008091A0008A122000871
:100130004303000843030008430300084303000887
:100140007D0E0008430300084303000825730008E0
:10015000B1220008C1220008D1220008A5B400087D
:100160004303000843030008430300084303000857
:100170004303000843030008430300080000000095
:10018000430300084303000800F002F800F05CF8A5
:100190000AA090E8000C82448344AAF10107DA45E2
:1001A00001D100F051F8AFF2090EBAE80F0013F0D8
:1001B000010F18BFFB1A43F001031847E8230100A1
:1001C000082401000A444FF0000C10F8013B13F022
:1001D000070408BF10F8014B1D1108BF10F8015BA0
:1001E000641E05D010F8016B641E01F8016BF9D193
:1001F00013F0080F1EBF10F8014BAD1C0C1B09D1EA
:100200006D1E58BF01F801CBFAD505E014F8016B5B
:1002100001F8016B6D1EF9D59142D6D370470000ED
:100220000023002400250026103A28BF78C1FBD8FF
:10023000520728BF30C148BF0B6070471FB511F08F
:1002400065FA1FBD10B510BD00F002FA1146FFF7A8
:10025000F5FF0EF007FE00F020FA03B4FFF7F2FFFF
:1002600003BC00F023FA00002C4B19680868B0E8C2
:10027000F04F80F30988BFF36F8F4FF0000080F3D9
:10028000118870470000000008480068006880F38B
:1002900008884FF0000080F3148862B661B6BFF39F
:1002A0004F8FBFF36F8F00DF00BF00BF08ED00E08E
:1002B000DFF80C00016841F470010160704700BF75
:1002C00088ED00E0EFF30980BFF36F8F134B1A68DE
:1002D0001EF0100F08BF20ED108A20E9F04F1060CB
:1002E00009B44FF0500080F31188BFF34F8FBFF374
:1002F0006F8F10F081F94FF0000080F3118809BC76
:1003000019680868B0E8F04F1EF0100F08BFB0EC95
:10031000108A80F30988BFF36F8F70473C0000207C
:10032000EFF30580704700000948804709480047FF
:10033000FEE7FEE7FEE7FEE7FEE7FEE7FEE7FEE795
:10034000FEE7FEE704480549054A064B70470000F2
:1003500019AB000889010008A89D0020A8A300206F
:10036000A89F0020A89F002053EA020C00F069809B
:100370002DE9F04B4FF00006002B1FBFB3FA83F5B9
:1003800003FA05F424FA05F65E4012BF1643B2FAEA
:1003900082F502FA05F4C5F120051EBF22FA05FC1C
:1003A00044EA0C04203556EA044C4FEA144418BFC2
:1003B000641C4FF000084FF00009904271EB030CF1
:1003C00039D3002919BFB1FA81F701FA07F6B0FA5B
:1003D00080F700FA07F6C7F120071EBF20FA07FCD6
:1003E00046EA0C062037B6FBF4FCA7EB0507103FE6
:1003F00007F01F0BCBF120060CFA0BFB2CFA06F6CC
:1004000044BFB3460026202FA4BF5E464FF0000B2A
:100410005BEA060C08BF4FF0010B19EB0B09ABFBB5
:10042000027C48EB0608C01B06FB02CC0BFB03CC8E
:1004300071EB0C01C1E70B46024641464846BDE858
:10044000F08B13B54FF000004FF00001AFF30080C8
:10045000BDE81C40704710B5431C02E010F8011BBA
:1004600071B18107FAD14FF0013202C88C1A8C4366
:1004700014EAC211F9D0C01A0A0603D0C01E10BD7A
:10048000C01A10BD0A0401D0801E10BD0902FCD0A4
:10049000401E10BD032A40F2308010F0030C00F023
:1004A000158011F8013BBCF1020F624498BF11F8AE
:1004B00001CB00F8013B38BF11F8013BA2F1040267
:1004C00098BF00F801CB38BF00F8013B11F00303DF
:1004D00000F02580083AC0F0088051F8043B083A43
:1004E00051F804CBA0E80810F5E7121D5CBF51F8E5
:1004F000043B40F8043BAFF30080D20724BF11F85F
:10050000013B11F801CB48BF11F8012B24BF00F8C3
:10051000013B00F801CB48BF00F8012B704710B534
:10052000203AC0F00B80B1E81850203AA0E81850EB
:10053000B1E81850A0E81850BFF4F5AF5FEA027CAC
:1005400024BFB1E81850A0E8185044BF18C918C01B
:10055000BDE810405FEA827C24BF51F8043B40F8BC
:10056000043B08BF7047D20728BF31F8023B48BFA1
:1005700011F8012B28BF20F8023B48BF00F8012BDF
:10058000704702F0FF0343EA032242EA024200F00E
:1005900002B84FF000020429C0F0128010F0030CE2
:1005A00000F01B80CCF1040CBCF1020F18BF00F866
:1005B000012BA8BF20F8022BA1EB0C0100F00DB815
:1005C0005FEAC17C24BF00F8012B00F8012B48BF73
:1005D00000F8012B70474FF0000200B51346944617
:1005E0009646203922BFA0E80C50A0E80C50B1F18B
:1005F0002001BFF4F7AF090728BFA0E80C5048BF9F
:100600000CC05DF804EB890028BF40F8042B08BF3C
:10061000704748BF20F8022B11F0804F18BF00F838
:10062000012B704770477047704710B500F008F80D
:10063000006810BD10B5044600F002F8046010BD5B
:1006400000487047489D002000487047489D0020A2
:100650007546FFF7F9FFAE4605006946534620F0A0
:100660000700854618B020B5FFF76CFEBDE82040B6
:100670004FF000064FF000074FF000084FF0000B5E
:1006800021F00701AC46ACE8C009ACE8C009ACE811
:10069000C009ACE8C0098D46704710B50446AFF3F9
:1006A00000802046BDE81040FFF7D7BD0149182063
:1006B000ABBEFEE72600020070470000B0B5002583
:1006C000B5EB920F33D022F003049FED220A4FEADC
:1006D000920E00EB840C0D4690ED001A95ED005A39
:1006E00090ED012A95ED016A90ED023A95ED027ABE
:1006F00021EE051A90ED034AD5ED030A30EE010A0A
:1007000022EE061A30EE010A23EE071A30EE010A35
:1007100024EE201A30EE010ABEF1010E00F11000A5
:1007200005F11005D8D101EB8401604601E09FED91
:10073000090A12F0030209D0B0EC011AB1EC012A47
:10074000013A21EE021A30EE010AF5D183ED000ADA
:10075000B0BD00BF000000000180428043607047D0
:100760000023B3EB920F20D0930800BF90ED001A46
:1007700090ED012A90ED023A90ED034A21EE001A25
:1007800022EE002A23EE003A24EE004A01F1100C7A
:10079000103081ED001A81ED012A81ED023A81EDE0
:1007A000034A013B6146E1D1614612F0030208BFF2
:1007B000704700BFB0EC011A013A21EE001AA1EC1B
:1007C000011AF7D17047000080B59FED441A9FEDE4
:1007D000443A20EE011AB0EEC11ABDEEC12AB8EEBD
:1007E000C22A31EE421A21EE031ABDEEC12A12EEE0
:1007F000102A02F1800E6FF35F2241F6A05CC0F672
:10080000010C02EE102A6FF35F2E0CEB8203B8EEA0
:10081000422A0CEB8E0231EE421A92ED002A92ED42
:10082000013A93ED004A93ED015A9FED2E7A33EE93
:10083000426A74EE050A20EE877A76EE060A74EEB6
:10084000041ADFED292A37EE607AF0EE080A75EE19
:10085000211A26EE206A61EEA21A21EE077A36EE00
:10086000216A36EE076A21EE066A24EE227A36EE17
:10087000476A21EE066A32EE066A81ED006A35EEBD
:10088000445A32EE036A26EE226A35EE057A36EED7
:10089000476A32EE027A33EE073A25EE205A23EE0B
:1008A000223A21EE066A35EE433A33EE063A21EE5D
:1008B000033A22EE222A32EE032A21EE021A34EE05
:1008C000011AB5EE400AB1EE412AF1EE10FAB8BFB6
:1008D000B0EE421A80ED001A80BD00BF610B363BBE
:1008E00000000044DB0F49BCDB0F493CB0B50025DC
:1008F000B5EB930F31D04FEA930C00BF90ED000A97
:1009000091ED001A00F1100E30EE410A82ED000A5E
:1009100090ED010A91ED011A01F1100430EE410A47
:1009200082ED010A90ED020A91ED021A02F1100522
:1009300030EE410A82ED020A90ED030A91ED031AAE
:10094000BCF1010C30EE410A82ED030A70462A46E2
:100950002146D3D121462A46704613F0030308BF2F
:10096000B0BD00BFB0EC010AB1EC011A013B30EEA2
:10097000410AA2EC010AF5D1B0BD000010B5012278
:100980001021024803F0C6F910BD0000000002402B
:1009900010B500221021024803F0BCF910BD000080
:1009A000000002407047000010B5012211460248C5
:1009B00003F0B0F910BD00000004024010B50022A1
:1009C0000121024803F0A6F910BD00000004024016
:1009D0004278120212B203781A4300EE102AF8EE9F
:1009E000C00A1A4A92ED001A60EE810A91ED0D1AC2
:1009F00060EE810AC1ED0F0AC278120212B283784A
:100A00001A4300EE102AF8EEC00A104A92ED001ABE
:100A100060EE810A91ED0D1A60EE810AC1ED100AB7
:100A20004279120212B203791A4300EE102AF8EE4C
:100A3000C00A064A92ED001A60EE810A91ED0D1A85
:100A400060EE810AC1ED110A70470000B800002075
:100A5000704710B5044603E04FF47A7000F006F8D2
:100A6000201EA4F101018CB2F6D110BD70B5034671
:100A700000BF00BF0020002200BF4FF0E0267569D4
:100A8000A82603FB06F44FF0E026B16910E04FF012
:100A9000E026B06988420BD0884202D20E1A324456
:100AA00002E02E1A0E4432440146A24200D300E076
:100AB000EDE700BF70BD00004278120212B2037869
:100AC0001A4300EE102AD1ED000AB8EEC01A164AF9
:100AD000D2ED001A51EE210AC1ED120AC2781202BB
:100AE00012B283781A4300EE102AD1ED010AB8EE53
:100AF000C01A0D4AD2ED001A51EE210AC1ED130AB7
:100B00004279120212B203791A4300EE102AD1ED93
:100B1000020AB8EEC01A044AD2ED001A51EE210AB8
:100B2000C1ED140A70470000BC00002010B500247D
:100B3000FFF738FFFFF78CFF9FED0C3ADFED0C2A33
:100B40009FED0B2ADFED091A9FED0A1ADFED0A0A65
:100B50009FED0A0A0A4806F0FDFD0DF0BFFD0443B3
:100B60000DF050FE0443204610BD000000000000C0
:100B700000A08C45CDCC4C3E000048430000FA4418
:100B80006C7000207CB50546002000900190FFF7B6
:100B9000FFFE922000F0E2F806226946122000F0E3
:100BA000BDF8FFF7EBFE9DF80100000200B29DF8D2
:100BB000001040EA010400EE104AB8EEC00A5548A1
:100BC000D0ED000A20EE200AD5ED0D0A20EE200A15
:100BD00085ED0F0A9DF80300000200B29DF8021097
:100BE00040EA010400EE104AB8EEC00A4948D0EDD0
:100BF000000A20EE200AD5ED0D0A20EE200A85ED30
:100C0000100A9DF80500000200B29DF8041040EAA9
:100C1000010400EE104AB8EEC00A3E48D0ED000ACA
:100C200020EE200AD5ED0D0A20EE200A85ED110AEE
:100C3000FFF7C4FE08226946002000F06FF8FFF7B6
:100C4000B3FE9DF800000F283ED19DF8030000027E
:100C500000B29DF8021040EA0104D5ED000A00EE52
:100C6000104AB8EEC00A2C4890ED001A50EE010A66
:100C7000C5ED120A9DF80500000200B29DF80410AF
:100C800040EA0104D5ED010A00EE104AB8EEC00AB0
:100C9000214890ED001A50EE010AC5ED130A9DF8A7
:100CA0000700000200B29DF8061040EA0104D5EDED
:100CB000020A00EE104AB8EEC00A174890ED001A7A
:100CC00050EE010AC5ED140AFFF762FEA22000F003
:100CD00045F802226946222000F020F8FFF74EFE78
:100CE0009DF80000C0009DF8011040EA6114B4F5C1
:100CF000806F02DBA4F5006004B200EE104AF8EE4B
:100D0000C00AB4EE001AB3EE070A00EE810A85EDC0
:100D1000150A7CBDB8000020BC00002070B5064656
:100D20000C46154646F0800000F018F806E0552005
:100D300000F014F82070641C681EC5B2002DF6D1B6
:100D400070BD70B504460D4644F0800000F006F812
:100D5000552000F003F8287070BD000001B582B086
:100D60004FF47A70012301AA02A90090024804F00E
:100D700071FC9DF804000EBDA009002010B50246CC
:100D80001378DB00547843EA6410B0F5806F02DB1F
:100D9000A0F5006318B200EE100AF8EEC00AB4EE37
:100DA000001AB3EE070A00EE810A81ED150A10BDA4
:100DB00070B505460C462846FFF7D0FF2046FFF7E2
:100DC000CDFF70BD00BFFEE73EE000BF4FF0FF313A
:100DD00001200FF06DF80128F8D11C4806F070FAD8
:100DE0001B4807F0B7F81B4807F0B4F81A4806F09C
:100DF00099FC19483C3006F095FC1748783006F00D
:100E000091FC1548B43006F08DFC144806F08AFCBD
:100E100012483C3006F086FC1048783006F082FC20
:100E20000F4890ED150ADFED0F0AB4EEE00AF1EE7F
:100E300010FA06D2D0ED150AB0EE600A05F07EFC7D
:100E400002E0002008490860BFE70000F86F0020BA
:100E5000747E0020C47E0020E47C00208880002076
:100E6000B4700020000020423444014010B5024814
:100E700001F025FF10BD00004009002010B5024818
:100E800001F01DFF10BD000068090020F8B50746FD
:100E90000C4615461E464FF400700D4908600020B0
:100EA0008860C86008200861380A0A4908704F70D5
:100EB000200A8870CC70280A08714D71300A887138
:100EC000CE716B460A460249034801F0F8FCF8BDB2
:100ED000F0710020140100206809002038B5044694
:100EE0004FF4FF700849086000208860C86008203F
:100EF0000861200A05498870CC706B460A46024991
:100F0000034801F0DCFC38BDC07100200C0100205A
:100F100040090020F8B506460C4615464FF400700F
:100F20000D49086000208860C86008200861300A08
:100F30000A4908704E70200A8870CC70280A08711F
:100F40004D7100208871C8716B460A4602490448F9
:100F500001F0B5FCF8BD0000C0710020FC000020CD
:100F60004009002038B504464FF4FF700849086076
:100F700000208860C86008200861200A05490870C0
:100F80004C706B460A460249034801F098FC38BD94
:100F9000C071002004010020680900200346042BD2
:100FA00015D007DC7BB1012B0ED0022B0DD0032B0B
:100FB00012D10BE0202B0BD0212B0AD0222B09D0F1
:100FC000232B09D107E008E007E006E005E004E094
:100FD00003E002E001E000E000BF00BF0020704736
:100FE0000020704710B50022044905480AF043FD6F
:100FF000044903480AF030FD002010BD448E002053
:10100000688100204486002038B504460D460E490C
:10101000286808600020009069460C4800680FF0BE
:10102000D3F9009838B14FF0805009490860BFF3F8
:101030004F8FBFF36F8F214606480AF00DFD05481C
:101040000AF0D6FC002038BDF0010020100000207E
:1010500004ED00E06881002010B503460C46002135
:10106000084610BD08B50DF0B8FF009000BF9C48C1
:1010700006F058FB9A483C3006F054FB984878300C
:1010800006F050FB9648B43006F04CFB9FED953AC5
:10109000F2EE042AB2EE042ADFED921A9FED911AC5
:1010A000DFED910A9FED910A8D4806F053FB9FED0D
:1010B0008D3AF2EE042AB2EE042ADFED8A1A9FED91
:1010C000891ADFED890A9FED890A85483C3006F0D0
:1010D00041FB9FED843AF2EE042AB2EE042ADFEDE2
:1010E000811A9FED801ADFED800A9FED800A7C480F
:1010F000783006F02FFB9FED7B3AF2EE042AB2EE39
:10110000042ADFED781A9FED771ADFED770A9FED5D
:10111000770A7348B43006F01DFB9FED720A7448DD
:1011200080ED000A9FED6F0A80ED010A9FED6D0AC8
:1011300080ED060AD3E00DF0BFFC008800EE100A37
:10114000B8EE400A6A4880ED110A0EF099FE0024BC
:1011500013E0E0B20DF07AFCB0F9020000EE100AE4
:10116000B8EEC00ADFED630A20EE200A6048343092
:1011700000EB840080ED000A641C042CE9DB5E486F
:10118000007A012802D10DF0DBFD04E05A48007A14
:1011900008B90EF0E5FD5648D0ED120AB0EE600A2F
:1011A0000DF08EFC524890ED070AB5EEC00AF1EE44
:1011B00010FA14D190ED080AB5EEC00AF1EE10FA5B
:1011C0000DD190ED060AB5EEC00AF1EE10FA06D187
:1011D00000231A4619461846FFF758FE7BE044489C
:1011E00090ED0D1AF0EE410A90ED021AB0EE410AB0
:1011F0003B4806F0F0FA3E4890ED0E1AF0EE410A38
:1012000090ED031AB0EE410A35483C3006F0E3FA9F
:10121000374890ED0F1AF0EE410A90ED041AB0EE47
:10122000410A2F48783006F0D6FA314890ED101A6E
:10123000F0EE410A90ED051AB0EE410A2848B430AC
:1012400006F0C9FA2A492431254806F0A3F92849AD
:10125000283123483C3006F09DF925492C3120489F
:10126000783006F097F9224930311D48B43006F045
:1012700091F91F4824300DF0E9FE1D4828300DF08B
:10128000E5FE1B482C300DF0E1FE194830300DF022
:10129000DDFE174C94ED0C0ABDEEC00A10EE104AAC
:1012A00023B2134C94ED0B0ABDEEC00A10EE104AA7
:1012B00022B20F4C94ED0A0ABDEEC00A10EE104A9D
:1012C00021B20B4C94ED090ABDEEC00A10EE104A93
:1012D00020B2FFF7DBFD012168460DF06BFE2AE727
:1012E000E47C002000000000CDCCCC3D3333733FC4
:1012F000D47D0020F46CD63D207E002096B00CF00A
:1013000061FE41E000BF4FF0FF3101200EF0D0FD43
:101310000128F8D10EF088FE16221C4910A8FFF70C
:10132000B9F80EF0ABFE9DF84000A9282CD19DF82D
:101330004100532828D1152110A80FF0A3F918B3A4
:1013400001A910A80CF096FD0EF06EFE3C2201A93A
:101350000F48FFF79FF80EF091FE0D48008F01280F
:101360000CD10C4908700C48006868B100230222B7
:101370001946094800680FF01BFE05E00448008F7D
:1013800010B9002003490870BCE700005C7E002013
:10139000207E0020600100201800002070B52DED97
:1013A000048B88B0044600200690079001F054F8A2
:1013B000FE4880ED000A00BF01F04EF8FB48D0ED7A
:1013C000000A30EE600AF2EE040AB4EEE00AF1EE32
:1013D00010FA10DD9FEDF60A84ED000A9FEDF40A85
:1013E00084ED000A9FEDF20A84ED000A9FEDF10AF8
:1013F00084ED060A4EE29FEDF00A01F00FF89FED32
:10140000EF0A84ED060A9FEDED0A84ED000A9FEDD8
:10141000EB0A84ED010A9FEDE90A84ED020A002639
:1014200073E1FFF7B5FA9220FFF798FC062206A9B0
:101430001220FFF773FCFFF7A1FA9DF819000002D4
:1014400000B29DF8181040EA010500EE105AB8EEFF
:10145000C00ADB48D0ED000A20EE200A84ED0A0A1B
:101460009DF81B00000200B29DF81A1040EA010529
:1014700000EE105AB8EEC00AD148D0ED000A20EEB6
:10148000200A84ED0B0A9DF81D00000200B29DF8B1
:101490001C1040EA010500EE105AB8EEC00AC84818
:1014A000D0ED000A20EE200A84ED0C0AD4ED0A0AE1
:1014B00060EEA00A94ED0B1AD4ED0B1A41EE210A4E
:1014C00094ED0C1AD4ED0C1A41EE210AB0EE600A2C
:1014D0000DF0D0F8B0EE408A94ED060A30EE080A1E
:1014E00084ED060AFFF76AFA082206A90020FFF732
:1014F00015FCFFF759FA9DF818000F2850D19DF8F8
:101500001B00000200B29DF81A1040EA010500EE2F
:10151000105AB8EEC00AAB48D0ED000A20EE200AFF
:1015200084ED070A94ED000AD4ED070A30EE200A94
:1015300084ED000A9DF81D00000200B29DF81C1009
:1015400040EA010500EE105AB8EEC00A9D48D0ED01
:10155000000A20EE200A84ED080A94ED010AD4ED79
:10156000080A30EE200A84ED010A9DF81F000002EF
:1015700000B29DF81E1040EA010500EE105AB8EEC8
:10158000C00A9048D0ED000A20EE200A84ED090A36
:1015900094ED020AD4ED090A30EE200A84ED020A25
:1015A00006BBF0EE488AB0EE489A002017E004F13E
:1015B0001C0101EB800191ED000A03A901EB800100
:1015C00081ED000A04F11C0101EB800191ED000A9C
:1015D000694601EB800181ED000A411CC8B2032875
:1015E000E5DB49E0B4EEE88AF1EE10FA01DDF0EE59
:1015F000488AB4EEE88AF1EE10FA01D2B0EE489AC9
:10160000002037E004F11C0101EB800191ED000A9C
:1016100003A901EB8001D1ED000AB4EEE00AF1EE7E
:1016200010FA0ADD04F11C0101EB800191ED000AC2
:1016300003A901EB800181ED000A04F11C0101EB1B
:10164000800191ED000A694601EB8001D1ED000AAD
:10165000B4EEE00AF1EE10FA0AD204F11C0101EB3B
:10166000800191ED000A694601EB800181ED000ADD
:10167000411CC8B20328C5DB38EEC90A524880EDC8
:10168000000A002012E003A901EB800191ED000A9D
:10169000694601EB8001D1ED000A30EE600A4B494A
:1016A00001EB800181ED000A411CC8B20328EADB8E
:1016B000454890ED000AF6EE000AB4EEE00AF1EEBD
:1016C00010FA1BDC414890ED000ADFED410AB4EE50
:1016D000E00AF1EE10FA11DC90ED010ADFED3C0AB0
:1016E000B4EEE00AF1EE10FA08DC90ED020ADFED4C
:1016F000380AB4EEE00AF1EE10FA00DD0AE09FEDE0
:10170000350A00F08BFE701C86B233480088864292
:10171000FFF687AE00BFD4ED060A2F48008800EE22
:10172000100AB8EE400A80EE801A84ED061A0020F6
:1017300011E004EB8001D1ED000A2749098800EE91
:10174000101AB8EE400A80EE801A04EB800181ED99
:10175000001A411CC8B20328EBDBFFF719F9A220DD
:10176000FFF7FCFA022206A92220FFF7D7FAFFF7BB
:1017700005F99DF81800C0009DF8191040EA6115A0
:10178000B5F5806F02DBA5F5006005B200EE105ADA
:10179000F8EEC00AB4EE001AB3EE070A00EE810AB2
:1017A00084ED0E0A0D480088401C19E0F00000206E
:1017B00068290E3B7A841D410AD7A33B0000000034
:1017C000B8000020BC000020C0000020A87000204D
:1017D0009A99193E6F12033AEC000020C6000020CF
:1017E00000B277490880774890ED000AF6EE000ACB
:1017F000B4EEE00AF1EE10FA3FF7DEAD94ED060A22
:10180000DFED710A30EE600AB0EEC00AF6EE000AB3
:10181000B4EEE00AF1EE10FAEEDC6C4890ED000A4E
:101820005FED150AB4EEE00AF1EE10FAE4DC90ED9B
:10183000010A5FED190AB4EEE00AF1EE10FADBDC02
:1018400090ED020A5FED1E0AB4EEE00AF1EE10FA26
:10185000D2DC94ED000AB0EEC00ADFED5D0AB4EE12
:10186000E00AF1EE10FAC7DC94ED000AB0EEC00A0F
:10187000DFED570AB4EEE00AF1EE10FABCDC94EDAD
:10188000000AB0EEC00ADFED520AB4EEE00AF1EE53
:1018900010FAB1DC00BF94ED060ADFED4E0A80EECF
:1018A000801A84ED0D1A002680E0FFF771F892206F
:1018B000FFF754FA062206A91220FFF72FFAFFF7C6
:1018C0005DF89DF81900000200B29DF8181040EA7A
:1018D000010500EE105AB8EEC00A3F48D0ED000AEC
:1018E00020EE200AD4ED0D0A20EE200A84ED0A0A2B
:1018F00094ED030ADFED390A20EE200AD4ED0A0A3E
:101900009FED371A00EE810A84ED030A9DF81B0053
:10191000000200B29DF81A1040EA010500EE105ACC
:10192000B8EEC00A2C48D0ED000A20EE200AD4ED13
:101930000D0A20EE200A84ED0B0A94ED040ADFED77
:10194000270A20EE200AD4ED0B0A9FED251A00EE9F
:10195000810A84ED040A9DF81D00000200B29DF882
:101960001C1040EA010500EE105AB8EEC00A1A48F1
:10197000D0ED000A20EE200AD4ED0D0A20EE200A58
:1019800084ED0C0A94ED050ADFED140A20EE200A1E
:10199000D4ED0C0A9FED121A00EE810A84ED050ABF
:1019A0001FED740A00F03AFD701C86B20D480088E5
:1019B0008642FFF67AAF08B0BDEC048B70BD000024
:1019C000C6000020C0000020CDCC1C41A870002023
:1019D0000AD7233CC3F51C41B8000020CDCC4C3FB6
:1019E000CDCC4C3EEE00002010B5024801F09AFD2F
:1019F00010BD0000980C002010B5024801F092FDC7
:101A000010BD0000F80C002010B5FE48C06C006846
:101A1000FD49884276D9FC4854380068F949C96CB8
:101A20000968FA4A914201D1202169E0F549C96C5F
:101A30000968F54A483A914201D1202160E0F14914
:101A4000C96C0968F14A6032914201D1202157E006
:101A5000EC49C96C0968EC4A1832914201D1202145
:101A60004EE0E849C96C0968E84A1832914201D150
:101A7000C91445E0E349C96C0968E34A303A914228
:101A800001D1C9143CE0DF49C96C0968DF4A7832EA
:101A9000914201D1C91433E0DA49C96C0968DA4AC4
:101AA0003032914201D1C9142AE0D649C96C096883
:101AB000D64A3032914202D14FF4001120E0D14990
:101AC000C96C0968D04A183A914202D14FF400110A
:101AD00016E0CC49C96C0968CC4A9032914202D1D7
:101AE0004FF400110CE0C749C96C0968C64A483276
:101AF000914203D14FF4001102E003E04FF0006186
:101B0000084070E1BF48C06C0068C049A8318842F5
:101B100076D9BD4858380068BA49C96C0968BB4ACB
:101B2000914201D1202169E0B649C96C0968B64AE1
:101B3000483A914201D1202160E0B249C96C09685C
:101B4000B24A6032914201D1202157E0AD49C96CBF
:101B50000968AD4A1832914201D120214EE0A949CD
:101B6000C96C0968A94A1832914201D1C91445E0EB
:101B7000A449C96C0968A44A303A914201D1C914F8
:101B80003CE0A049C96C0968A04A7832914201D171
:101B9000C91433E09B49C96C09689B4A30329142B1
:101BA00001D1C9142AE09749C96C0968974A3032B3
:101BB000914202D14FF4001120E09249C96C0968AA
:101BC000914A183A914202D14FF4001116E08D4922
:101BD000C96C09688D4A9032914202D14FF40011CC
:101BE0000CE08849C96C0968874A4832914203D1A0
:101BF0004FF4001102E003E04FF000610840F2E012
:101C00008048C06C006881494831884276D97F4855
:101C1000103840687B49C96C09687C4A914201D1FF
:101C2000202169E07749C96C0968774A483A9142AE
:101C300001D1202160E07349C96C0968734A6032A0
:101C4000914201D1202157E06E49C96C09686E4A62
:101C50001832914201D120214EE06A49C96C0968CD
:101C60006A4A1832914201D1C91445E06549C96CEC
:101C70000968654A303A914201D1C9143CE0614992
:101C8000C96C0968614A7832914201D1C91433E0C4
:101C90005C49C96C09685C4A3032914201D1C9146F
:101CA0002AE05849C96C0968584A3032914202D139
:101CB0004FF4001120E05349C96C0968524A183AA0
:101CC000914202D14FF4001116E04E49C96C0968E7
:101CD0004E4A9032914202D14FF400110CE0494932
:101CE000C96C0968484A4832914203D14FF4001147
:101CF00002E003E04FF00061084074E04348103810
:101D000000684049C96C0968404A914201D12021CC
:101D100068E03C49C96C09683B4A483A914201D1A4
:101D200020215FE03749C96C0968384A6032914226
:101D300001D1202156E03349C96C0968324A183272
:101D4000914201D120214DE02E49C96C09682F4AEA
:101D50001832914201D1C91444E02A49C96C09687A
:101D6000294A303A914201D1C9143BE02549C96C56
:101D70000968264A7832914201D1C91432E02149DA
:101D8000C96C0968204A3032914201D1C91429E056
:101D90001C49C96C09681D4A3032914202D14FF486
:101DA00000111FE01749C96C0968174A183A914297
:101DB00002D14FF4001115E01249C96C0968134AA9
:101DC0009032914202D14FF400110BE00D49C96CE1
:101DD00009680D4A4832914202D14FF4001101E0E6
:101DE0004FF00061084000286FD00648C06C0068C2
:101DF000054988427BD90348C06C00680349884282
:101E000008D105E0A009002058640240106002409B
:101E1000202068E0FE48C06C0068FE49884201D17D
:101E2000202060E0FA48C06C0068FB49884201D17C
:101E3000202058E0F648C06C0068F64960318842BE
:101E400001D120204FE0F248C06C0068F2494839C7
:101E5000884201D1C01446E0ED48C06C0068ED49ED
:101E60001831884201D1C0143DE0E948C06C0068D7
:101E7000E9491831884201D1C01434E0E448C06C0B
:101E80000068E4497831884201D1C0142BE0E04871
:101E9000C06C0068E0493039884202D14FF400102C
:101EA00021E0DB48C06C0068DA493031884202D159
:101EB0004FF4001017E0D648C06C0068D6493031A6
:101EC000884204D14FF400100DE0DFE10FE0D0486C
:101ED000C06C0068CF499031884202D14FF40010A5
:101EE00001E04FF00060CB49091F08606AE1C84873
:101EF000C06C0068C8494831884274D9C448C06C75
:101F00000068C5496039884201D1202066E0C04898
:101F1000C06C0068BF49884201D120205EE0BC4807
:101F2000C06C0068BC49884201D1202056E0B84806
:101F3000C06C0068B7496031884201D120204DE073
:101F4000B348C06C0068B4494839884201D1C01414
:101F500044E0AF48C06C0068AE491831884201D1F6
:101F6000C0143BE0AA48C06C0068AB4918318842F5
:101F700001D1C01432E0A648C06C0068A549783190
:101F8000884201D1C01429E0A148C06C0068A24970
:101F90003039884202D14FF400101FE09C48C06CD9
:101FA00000689C493031884202D14FF4001015E09E
:101FB0009748C06C006898493031884202D14FF48C
:101FC00000100BE09248C06C006892499031884242
:101FD00002D14FF4001001E04FF000608D49083944
:101FE0000860EFE0FFE78A48C06C00688A4918394A
:101FF000884274D98648C06C006887496039884235
:1020000001D1202066E08248C06C00688149884286
:1020100001D120205EE07E48C06C00687E49884285
:1020200001D1202056E07A48C06C006879496031BF
:10203000884201D120204DE07548C06C0068764987
:102040004839884201D1C01444E07148C06C00682E
:1020500070491831884201D1C0143BE06C48C06C13
:1020600000686D491831884201D1C01432E06848D7
:10207000C06C006867497831884201D1C01429E0FA
:102080006348C06C006864493039884202D14FF41B
:1020900000101FE05E48C06C00685E493031884225
:1020A00002D14FF4001015E05948C06C00685A493D
:1020B0003031884202D14FF400100BE05448C06C1C
:1020C000006854499031884202D14FF4001001E079
:1020D0004FF0006050497039C86073E0FFE74C482A
:1020E000C06C00684C496039884201D1202066E00C
:1020F0004748C06C00684749884201D120205EE013
:102100004348C06C00684449884201D1202056E011
:102110003F48C06C00683F496031884201D12020AF
:102120004DE03B48C06C00683B494839884201D1CA
:10213000C01444E03648C06C006836491831884203
:1021400001D1C0143BE03248C06C006832491831FC
:10215000884201D1C01432E02D48C06C00682D497E
:102160007831884201D1C01429E02948C06C006848
:1021700029493039884202D14FF400101FE0244829
:10218000C06C006823493031884202D14FF40010FE
:1021900015E01F48C06C00681F493031884202D1E9
:1021A0004FF400100BE01A48C06C006819499031D8
:1021B000884202D14FF4001001E04FF00060164950
:1021C000703988601548007800F0020078B1134833
:1021D000007820F00200114908700846007840F0AD
:1021E00004000870012211460D4801F093FD0D48CE
:1021F000007800F00200E0B10A48007820F0020008
:10220000084908700846007840F0040008700BE0A8
:10221000A00900201064024070600240910100207B
:10222000000402409201002001221021184801F010
:1022300071FD1848007800F0020078B11548007868
:1022400020F00200134908700846007840F00400AE
:102250000870012210210E4801F05CFD0CF060FCBA
:102260000D48007800F0040080B10B48007820F0A1
:102270000400094908700846007840F0080008701A
:102280000648006840F001000449086010BD0000E5
:10229000000002409301002091010020103C014009
:1022A00010B5024801F03EF910BD0000580A0020A8
:1022B00010B5024801F036F910BD0000380C0020BE
:1022C00010B5024801F02EF910BD0000580D002095
:1022D00010B5024801F026F910BD0000D80B00200F
:1022E0000146087810381823B0FBF3F20848805CE8
:1022F000C865032A05D908686FF30900001D8865C1
:1023000003E008686FF309008865886D7047000076
:10231000F8170108014600208A6A8B69CBB932B1EF
:10232000012A0DD0022A03D0032A10D10EE000BFEB
:10233000CB6A03F08073B3F1807F00D1012007E006
:10234000CB6AB3F1C07F00D1012001E000E000BF03
:1023500034E08B69B3F5005F1AD132B1012A07D09E
:10236000022A03D0032A11D10AE000BF01200EE0A7
:10237000CB6A03F08073B3F1807F00D1012006E0C7
:10238000CB6AB3F1C07F00D1012000E000BF15E0AF
:1023900032B1012A05D0022A04D0032A0CD103E06D
:1023A00000BF00BF012008E0CB6A03F08073B3F1E7
:1023B000807F00D1012000E000BF00BF704730B532
:1023C0000468246824F4802405682C600468636031
:1023D0008468402C04D10468A2600468E16003E0D2
:1023E0000468A1600468E26030BD000008B50848D8
:1023F00040680090074900980968884204D206485E
:102400000068401C0449086002490098086008BD43
:10241000001000E038010020340100200C49486819
:10242000F0EE400A00BF0A494968091A01EE101A85
:10243000F8EE411A074991ED001AB8EE411A20EE64
:10244000811AF4EEC11AF1EE10FAECD370470000D5
:10245000001000E02801002010B52DED028B00F0E7
:1024600025F80F4890ED000AB8EE400A808800EE8B
:10247000900AF8EE600A9FED0B1A00EE810A0848F8
:10248000C08800EE900AF8EE600A9FED071A00EE91
:10249000810AB0EE408AB0EE480ABDEC028B10BD56
:1024A000200100206F12833ABD37863538B52948A0
:1024B00040680090FFF79AFF274800684FF0FF310F
:1024C000A0FB01310098181841F10001234A03C212
:1024D000234800232149026803C9FDF745FF214A2B
:1024E00003C220480CC81E4800680024A2FB001547
:1024F00003FB005002FB04021848D0E90030591ACF
:1025000060EB0200184AC2E900101648006817493B
:102510000860174800231449026803C9FDF724FF27
:1025200012498880084680881149096841430E484D
:10253000D0E90030591A60F100000E4AC2E90010DB
:102540000D4800230B49026803C9FDF70DFF074939
:10255000C88038BD001000E0340100204001002098
:102560002801002048010020500100202001002007
:102570002C0100205801002030010020704710B5C8
:10258000012001F0BFFA10BD10B5102001F0BAFA19
:1025900010BD10B5202001F0B5FA10BD72B600BF15
:1025A000FEE7000008B50CF018FD009000BF614880
:1025B00005F0C2FC604805F0BFFC9FED600A604872
:1025C00080ED000A9FED5D0A80ED010A9FED5B3A08
:1025D000DFED5C2AB0EE002ADFED5B1AB2EE0E1AD8
:1025E000DFED5A0A9FED580A534805F0EEFCDFED87
:1025F000533A9FED543AF7EE002AB2EE002AF1EE7C
:10260000081AB2EE081ADFED520AB7EE000A49487E
:1026100005F0C7FC4FF4FA700CF0C0FC89E04D489F
:10262000007A012803D146480CF0C0FB05E0494878
:10263000007A10B942480DF0D1FB474940480FF0ED
:1026400033F83F480CF032FD3D480FF00BF842489C
:102650005438D0ED1C1A9FED412A61EE821AB0EE7B
:10266000611AD0ED151AF0EE610A3548D0ED001A66
:10267000B0EE610A304805F025FC37485438D0EDFB
:102680001B1A9FED362A61EE821AB0EE611AD0ED68
:10269000161AF0EE610A2A48D0ED011AB0EE610A6E
:1026A000244805F00FFC244805F05AFB244880ED2F
:1026B000020A204805F054FB214880ED030A90ED02
:1026C000030AFFEE000A20EE200A80ED030A2448E8
:1026D0000078012814D01A4991ED030ABDEEC00A12
:1026E00010EE101A08B2FEF7F9FB154991ED020A37
:1026F000BDEEC00A10EE101A08B2FEF733FC14E06B
:1027000017480078012810D10020FEF7E7FB0022CF
:1027100011461046FEF7FEFB9FED080A084880EDC3
:10272000000A9FED060A80ED010A012168460CF0BF
:1027300041FC74E7C47E0020747E0020000000008D
:10274000147F002000008046CDCC4C3F0000F042BA
:1027500000000C43207E00204C700020E62E6542D5
:102760006001002010B5044694ED021A21EE011A12
:10277000D4ED031A94ED032A01EE821AF6EE001A44
:1027800031EE611AF0EE410A94ED021AD4ED051A09
:1027900021EE211AD4ED031A94ED042A01EE821AD7
:1027A000B0EE410A0BF010FEDFED2B0A20EE200AFE
:1027B000DFED2A0A80EE201A84ED151AD4ED020A04
:1027C000B0EE001A60EE810A94ED041A60EE810A00
:1027D00094ED031AF0EE001A21EE211AD4ED051A39
:1027E00041EE610AB0EE600A0BF058FDDFED1A0A07
:1027F00020EE200ADFED190A80EE201A84ED161A69
:1028000094ED021A21EE011AD4ED051A94ED052A71
:1028100001EE821AF6EE001A31EE611AF0EE410A6C
:1028200094ED021AD4ED031A21EE211AD4ED041A04
:1028300094ED052A01EE821AB0EE410A0BF0C4FDB8
:10284000DFED050A20EE200ADFED040A80EE201AF3
:1028500084ED171A10BD000000003443DB0F49401F
:1028600070B50A480468001D0568001D06683444F8
:1028700054B108220649204604F092F80422044983
:102880001031284604F08CF870BD0000107AFF1F4C
:10289000D601002010B5024692F82030012B01D05D
:1028A000022B06D11068406908431468606100205B
:1028B00010BD506A40F4802050620120F8E7F0B566
:1028C00004460D461E4694F8207020688368A86868
:1028D00000B900E000BF012F01D0022F7DD103F02D
:1028E000806030B903F0006018B903F08050002810
:1028F0007ED0C3F30161012088403060A86860B9D0
:10290000B5F800C0E86840EA4C5C206800F5C0708B
:1029100000EB0110C0F800C00FE0D5E901C040EAAB
:10292000CC00D5F80CC040EA0C00D4F800C00CF57F
:10293000C07C0CEB011CCCF80000D5F810C020685E
:1029400000F5C07000EB0110C0F804C0287D01281C
:102950000ED1206800F5C07000EB0110406840F413
:10296000807C206800F5C07000EB0110C0F804C046
:10297000D079000692F806C040EA0C4092F805C0F3
:1029800040EA0C2092F804C040EA0C00D4F800C0E1
:102990000CF5C07C0CEB011CCCF80C00D0780006C8
:1029A00092F802C040EA0C4092F801C040EA0C20C4
:1029B00092F800C040EA0C00D4F800C00CF5C07CCE
:1029C0000CEB011CCCF80800206800F5C07000EB8F
:1029D0000110006840F0010C01E00FE008E0206801
:1029E00000F5C07000EB0110C0F800C00020F0BD81
:1029F000606A40F4001060620120F8E7606A40F409
:102A0000802060620120F2E7F0B504460A4694F89F
:102A10002050012D01D0022D7ED1424901F50071D7
:102A2000086840F001000860086820F47C500860E5
:102A30000868566A40EA06200860107D00F01F060C
:102A4000012000FA06F3C8699843C861A1F5007136
:102A5000D069C8B9D1F80C029843C1F80C0290882B
:102A600080B2968940EA064601F51070576940F831
:102A70003760108880B2168940EA064601F510706A
:102A8000576900EBC7004660D069012819D1D1F819
:102A90000C021843C1F80C02908880B2168840EAF4
:102AA000064601F51070576940F83760908980B28A
:102AB000168940EA064601F51070576900EBC70019
:102AC0004660906928B9D1F804029843C1F804021D
:102AD00004E0D1F804021843C1F80402106928B9CF
:102AE000D1F814029843C1F8140204E0D1F814029A
:102AF0001843C1F81402106A012804D1D1F81C024D
:102B00001843C1F81C02D1F8000220F00100C1F8FE
:102B100000020020F0BDFFE7606A40F480206062A0
:102B20000120F7E700640040704770B5044694F850
:102B30002050012D01D0022D7DD151B92068C068EF
:102B400000F0030080B9606A40F400106062012068
:102B500070BD2068006900F0030028B9606A40F485
:102B6000001060620120F3E7206800F5D87000EBE8
:102B70000110006800F004009060906840B920687F
:102B800000F5D87000EB01100068400D106007E000
:102B9000206800F5D87000EB01100068C008506094
:102BA000206800F5D87000EB0110006800F002000A
:102BB000D060206800F5D87000EB0110406800F08C
:102BC0000F00082802D30820106108E0206800F5F3
:102BD000D87000EB0110406800F00F001061206811
:102BE00000F5D87000EB0110406800F47F40000A47
:102BF0009061206800F5D87000EB01104068000C6F
:102C00005061206800F5D87000EB011080681870E2
:102C1000206800F5D87000EB0110806800F47F4058
:102C2000000A5870206800F5D87000EB0110806829
:102C300000F47F0000E03CE0000C9870206800F594
:102C4000D87000EB01108068000ED870206800F585
:102C5000D87000EB0110C0681871206800F5D870BA
:102C600000EB0110C06800F47F40000A5871206832
:102C700000F5D87000EB0110C06800F47F00000C74
:102C80009871206800F5D87000EB0110C068000E44
:102C9000D87131B92068C06840F020002668F06023
:102CA00005E02068006940F02000266830610020BF
:102CB0004EE7606A40F480206062012048E72DE919
:102CC000F05F04460025206846692068D0F804902B
:102CD000206887682068D0F80CA02068D0F810B071
:102CE0002068D0F8188006F00100002855D007F0C1
:102CF0000100C0B101202168886007F0020018B10E
:102D0000204600F074FB0EE007F0040010B145F41B
:102D1000006508E007F0080010B145F4805502E0B6
:102D2000204600F063FB07F48070C8B14FF4807058
:102D30002168886007F4007018B1204600F059FB44
:102D40000EE007F4806010B145F4005508E007F488
:102D5000006010B145F4804502E0204600F048FBD9
:102D600007F48030C8B14FF480302168886007F4E0
:102D7000003018B1204600F03EFB0EE007F4802042
:102D800010B145F4004508E007F4002010B145F407
:102D9000803502E0204600F02DFB06F0080038B137
:102DA0000AF0100020B145F4007510202168C860B9
:102DB00006F0040040B10AF0080028B1082021689C
:102DC000C860204600F00CFA06F0020038B1206816
:102DD000C06800F0030010B1204600F003FA06F0CE
:102DE000400038B10BF0100020B145F48065102090
:102DF0002168086106F0200040B10BF0080028B1FE
:102E0000082021680861204600F0BEFA06F0100094
:102E100038B12068006900F0030010B1204600F0CE
:102E2000B4FA06F4003040B109F0100028B11020C7
:102E300021684860204600F0A9FA06F4803040B1CD
:102E400009F0080028B1082021684860204600F0F9
:102E5000D3FA06F4004088B309F0040078B306F40E
:102E6000807020B108F0010008B145F0010506F4BA
:102E7000007020B108F0020008B145F0020506F428
:102E8000806020B108F0040008B145F0040506F4A4
:102E90000060A0B108F0700088B108F07000402810
:102EA00017D006DC10280BD020280CD0302819D1E0
:102EB0000CE0502810D0602814D110E01DE019E07B
:102EC00045F008050FE045F010050CE045F0200541
:102ED00009E045F0400506E045F0800503E045F4D3
:102EE000807500E000BF00BF2068806920F070009E
:102EF000216888610420216848602DB1606A2843F8
:102F000060622046FFF710FEBDE8F09F70B50446F2
:102F10000CB9012070BD94F8200010B9204600F0D3
:102F2000AFF82068006840F001002168086000F0F8
:102F3000F7FE05460DE000F0F3FE401B0A2808D915
:102F4000606A40F400306062052084F820000120AF
:102F5000E0E72068406800F001000028EBD020681E
:102F6000006820F002002168086000F0D9FE0546E4
:102F70000DE000F0D5FE401B0A2808D9606A40F435
:102F800000306062052084F820000120C2E720683C
:102F9000406800F002000028EBD1207E012806D115
:102FA0002068006840F080002168086005E0206823
:102FB000006820F0800021680860607E012806D14A
:102FC0002068006840F040002168086005E0206843
:102FD000006820F0400021680860A07E012806D12A
:102FE0002068006840F020002168086005E0206843
:102FF000006820F0200021680860E07E012806D1EA
:103000002068006820F010002168086005E0206852
:10301000006840F0100021680860207F012806D178
:103020002068006840F008002168086005E020681A
:10303000006820F0080021680860607F012806D140
:103040002068006840F004002168086005E02068FE
:10305000006820F0040021680860D4E902010843F8
:1030600021690843616908436168491E0843216872
:10307000C86100206062012084F82000002049E738
:1030800010B586B00446142101A8FDF7A4FA4E49F4
:103090002068884241D14D480068401C4B49086077
:1030A0000846006801280FD100BF00200090484862
:1030B000006840F00070464908600846006800F06B
:1030C0000070009000BF00BF00BF0020009040488B
:1030D0001038006840F008003D4910390860084683
:1030E000006800F00800009000BF00BF03200190BE
:1030F00002200290002003900320049009200590F4
:1031000001A9344800F00CFD00220521142000F034
:103110009BFE142000F084FE54E02F492068884272
:1031200050D100BF002000902948006840F0806026
:10313000274908600846006800F08060009000BFE2
:1031400000BF22480068401C20490860084600680B
:1031500001280FD100BF002000901D48006840F0FA
:1031600000701B4908600846006800F0007000907D
:1031700000BF00BF00BF0020009015481038006855
:1031800040F002001249103908600846006800F05B
:103190000200009000BF00BF60200190022002905A
:1031A00000200390032004900920059001A90B48FA
:1031B00000F0B6FC00220521402000F045FE402032
:1031C00000F02EFE06B010BD00640040200000207C
:1031D00040380240000C02400068004000040240F9
:1031E0007047000010B592B00446614920688842DB
:1031F0005BD102AB0BAA00212046FFF796FC0B988F
:10320000A0F2012030B1012805D0022805D0052800
:1032100049D101E000BF00BF00BF0B98401E5549D7
:1032200008700846007800EB4000534931F8200050
:1032300000B25049097801EB41014F4A02EB81018C
:1032400008819DF809009DF8081040EA01204949CD
:10325000097801EB410122F821009DF80B009DF84F
:103260000A1040EA012000B24249097801EB41010D
:1032700002EB810148809DF80D009DF80C1040EA9A
:10328000012000B23B49097801EB410102EB8101C9
:1032900088809DF80E003749097801EB410102EB67
:1032A0008101887100E000BF5FE0344920688842F6
:1032B0005BD16B4604AA00212046FFF736FC049838
:1032C000A0F2012005284ED2DFE800F00304050635
:1032D000070000BF00BF00BF00BF0498401E284980
:1032E00008700846007800EB4000264931F82000BD
:1032F00000B22349097801EB4101224A02EB810126
:1033000008819DF801009DF8001040EA01201C4949
:10331000097801EB410122F821009DF803009DF896
:10332000021040EA012000B21549097801EB410181
:1033300002EB810148809DF805009DF8041040EAE9
:10334000012000B20E49097801EB410102EB810135
:1033500088809DF806000A49097801EB410102EBDB
:103360008101887100E000BF00BF12B010BD0000F5
:10337000006400401C01002018710020006800401B
:103380001D0100206C71002070477047704770B5B8
:10339000044694F82000012822D1022084F820005D
:1033A0002068006820F001002168086000F0B8FC87
:1033B00005460DE000F0B4FC401B0A2808D9606AFD
:1033C00040F400306062052084F82000012070BDC8
:1033D0002068406800F001000028EBD16062F6E749
:1033E000606A40F4002060620120F0E77047704797
:1033F0007047704770477047704710B504460CB966
:10340000012010BD607920B900202071204600F015
:1034100005F8012060710020F3E7000008B50A4AB2
:10342000016891420FD100BF00210091074909684E
:1034300041F48051054A11601146096801F4805138
:10344000009100BF00BF08BD00300240303802408C
:1034500070B50446A56D00F063FC064694F835008F
:10346000022808D08020606500BF002084F8340066
:1034700000BF012070BD2068006820F016002168A0
:1034800008602068406920F0800021684861206C55
:1034900008B9A06C28B12068006820F008002168F5
:1034A00008602068006820F001002168086010E0D2
:1034B00000F036FC801B05280BD920206065032016
:1034C00084F8350000BF002084F8340000BF0320DA
:1034D000D0E72068006800F001000028E8D194F8E7
:1034E0005C103F208840A860012084F8350000BFB0
:1034F000002084F8340000BF00BFBBE7014691F80C
:103500003500022803D0802048650120704705203F
:1035100081F835000868006820F001000A68106032
:103520000020F3E7F8B50446002000908C480068BE
:103530004FF41651B0FBF1F7A56D2E6894F85C10AE
:1035400008208840304098B12068006800F00400EE
:1035500070B12068006820F004002168086094F8C9
:103560005C1008208840A860606D40F00100606534
:1035700094F85C1001208840304068B120684069B0
:1035800000F0800040B194F85C1001208840A860F1
:10359000606D40F00200606594F85C100420884083
:1035A000304068B12068006800F0020040B194F833
:1035B0005C1004208840A860606D40F004006065E5
:1035C00094F85C1010208840304078B32068006880
:1035D00000F0080050B394F85C1010208840A860F8
:1035E0002068006800F4802080B12068006800F442
:1035F000002028B9206CC8B12046216C884715E00E
:10360000A06C98B12046A16C88470FE02068006844
:1036100000F4807028B92068006820F00800216854
:103620000860206C10B12046216C884794F85C102B
:10363000202088403040002865D02068006800F0D5
:10364000100000285FD094F85C1020208840A8600B
:1036500094F83500052828D12068006820F016006D
:10366000216808602068406920F080002168486176
:10367000206C08B9A06C28B12068006820F0080010
:103680002168086094F85C103F208840A860012001
:1036900084F8350000BF002084F8340000BF206D9E
:1036A00010B12046216D8847F8BD2068006800F4FD
:1036B000802080B12068006800F4002028B9606C88
:1036C00010B12046616C88471DE0E06BD8B1204600
:1036D000E16B884717E02068006800F4807068B9E3
:1036E0002068006820F0100021680860012084F83C
:1036F000350000BF002084F8340000BFE06B10B13B
:103700002046E16B8847606D38B3606D00F00100C2
:10371000F0B1052084F835002068006820F0010031
:103720002168086000BF0098401C0090B84200D992
:1037300005E02068006800F001000028F3D100BF18
:10374000012084F8350000BF002084F8340000BF59
:10375000E06C10B12046E16C884700BFA4E7000090
:10376000380000202DE9F0410446002500F0D8FA89
:10377000074614B90120BDE8F081606A00B100BFBE
:10378000022084F8350000BF002084F8340000BF18
:103790002068006820F00100216808600AE000F05D
:1037A000BFFAC01B052805D920206065032084F8D6
:1037B0003500E0E72068006800F001000028EED145
:1037C0002068056821480540D4E901010843E16803
:1037D00008432169084361690843A1690843E16915
:1037E0000843216A08430543606A042803D1D4E9E9
:1037F0000B0108430543206805602068456925F0F2
:103800000705606A0543606A04280DD1A06A054374
:10381000E06A48B12046FEF77DFD28B14020606592
:10382000012084F83500A6E7206845612046FEF7B0
:1038300057FD064694F85C103F208840B060002099
:103840006065012084F83500002094E73F8010F087
:103850002DE9F04704460D4616461F464FF0000876
:10386000D4F8589000BF94F83400012802D1022007
:10387000BDE8F087012084F8340000BF94F83500DB
:10388000012825D1022084F83500002060653B46E0
:10389000324629462046FEF792FD94F85C103F2000
:1038A0008840C9F808002068006840F016002168C8
:1038B0000860206C28B12068006840F0080021688A
:1038C00008602068006840F001002168086006E098
:1038D00000BF002084F8340000BF4FF002084046CB
:1038E000C6E7000070B5044600F01AFA0646254601
:1038F000681C10B104480078054400BF00F010FABD
:10390000801BA842FAD370BD34000020F0B50C46ED
:10391000002500220023002194E0012606FA01F58B
:1039200004EA0502AA427DD1484E8F0856F8273096
:103930008E07370F0F26BE403340454EB04201D1AF
:10394000002623E0434EB04201D101261EE0424E44
:10395000B04201D1022619E0404EB04201D1032607
:1039600014E03F4EB04201D104260FE03D4EB0427C
:1039700001D105260AE03C4EB04201D1062605E001
:103980003A4EB04201D1072600E008268F073F0FCC
:10399000BE409E4224D1364E36689643344F3E6038
:1039A0003E1D366896433F1D3E60314E0C363668EC
:1039B00096432F4F0C373E603E1F366896433F1F9D
:1039C0003E608E07370F0F2606FA07F31F4E8F084B
:1039D00056F827609E431D4F4FEA910C47F82C6024
:1039E00006684FEA410C032707FA0CF7BE4306604E
:1039F000CF0800F1200656F827604F074FEAD76C32
:103A00000F2707FA0CF7BE434FEAD10C00F120074D
:103A100047F82C60C6684FEA410C032707FA0CF7F9
:103A2000BE4300E00DE0C660466801278F40BE43FC
:103A3000466086684FEA410C032707FA0CF7BE433D
:103A40008660491C1029FFF468AFF0BD08380140BA
:103A5000000002400004024000080240000C024046
:103A6000001002400014024000180240001C0240F6
:103A7000003C014010B50446102C11D11A480078C2
:103A800040F00100184908701848007840F0010023
:103A9000164908701648007828B30BF041F822E068
:103AA000202C0BD11348007840F001001149087018
:103AB0000F480078B8B10BF033F814E0012C12D1A4
:103AC0000DF05CFB01280ED00B490C4800680CF08F
:103AD0007BFC0948006830B1200709490860BFF342
:103AE0004F8FBFF36F8F10BD920100209301002014
:103AF0009501002091010020980100206401002020
:103B000004ED00E010B5044604480068204020B1F0
:103B1000024804602046FFF7ADFF10BD143C014091
:103B2000F8B502460B460025002400200021D6E00F
:103B3000012606FA01F51E6806EA0504AC4274D1B6
:103B40001E7906F00306012E04D01E7906F0030646
:103B5000022E13D190684F000326BE40B0434F00A1
:103B6000DE68BE4030439060506801268E40B0430E
:103B70001E79C6F300168E40304350601E7906F061
:103B80000306032E09D0D0684F000326BE40B04381
:103B90004F009E68BE403043D0601E7906F0030699
:103BA000022E13D1CF0802F1200656F827004E0747
:103BB000F70E0F26BE40B0434F07FF0E1E69BE40F2
:103BC0003043CF0802F1200646F8270010684F0066
:103BD0000326BE40B0431E7906F003064F00BE40E8
:103BE000304310605E6806F44036002E76D000BF89
:103BF000002600963C4E366846F480463A4F3E60BA
:103C00003E46366806F48046009600BF00BF374E39
:103C10008F0856F827008E07370F0F26BE40B04397
:103C2000334EB24202D1002624E057E0314EB24278
:103C300001D101261EE0304EB24201D1022619E028
:103C40002E4EB24201D1032614E02D4EB24201D1D4
:103C500004260FE02B4EB24201D105260AE02A4E7F
:103C6000B24201D1062605E0284EB24201D1072614
:103C700000E008268F073F0FBE4030431B4E8F08E1
:103C800046F82700224E3068A0435E6806F480168E
:103C900006B120431E4E3060361D3068A0435E687A
:103CA00006F4001606B12043194E361D3060184E3A
:103CB000361F3068A0435E6806F4003606B1204324
:103CC000134E361F3060361F3068A0435E6806F41E
:103CD000803606B120430E4E083E3060491C102944
:103CE000FFF426AFF8BD0000443802400838014018
:103CF000000002400004024000080240000C0240A4
:103D0000001002400014024000180240001C024053
:103D1000083C01400AB1816101E00B0483617047F6
:103D200001480068704700002C000020034800682C
:103D30000349097808440149086070472C000020B5
:103D40003400002010B50D48006840F400700B49A5
:103D500008600846006840F4806008600846006813
:103D600040F480700860032000F0ACF80F2000F0F1
:103D700007F800F02BF8002010BD0000003C0240C6
:103D800070B504460E4800784FF47A71B1FBF0F03C
:103D90000C490968B1FBF0F5284601F07FFD08B138
:103DA000012070BD102C07D200222146501E00F0C9
:103DB0004BF80548046001E00120F2E70020F0E73D
:103DC00034000020380000203000002008B500BF7B
:103DD000002000901148006840F480400F490860BE
:103DE0000846006800F48040009000BF00BF00BF9C
:103DF00000200090081F006840F08050091F0860F4
:103E00000846006800F08050009000BF00BF00220C
:103E10000F21901E00F018F808BD00004438024041
:103E20000146084600280DDB00BF00BF00F01F035D
:103E300001229A4043099B0003F1E023C3F80021CB
:103E400000BF00BF00BF70472DE9F05F80460D4600
:103E5000164600270AF006FA074639462A46334630
:103E600001F00700C0F1070ABAF1040F02D94FF0C0
:103E7000040A01E0C0F1070AD14600F1040ABAF1D0
:103E8000070F02D24FF0000A01E0A0F1030AD44666
:103E90004FF0010A0AFA09FAAAF1010A0AEA020A2B
:103EA0000AFA0CFA4FF0010B0BFA0CFBABF1010B09
:103EB0000BEA030B4AEA0B04214640460AF0DAF902
:103EC000BDE8F09F00BF00F00702064B19684FF6EF
:103ED000FF031940044B0B4343EA0221014B1960D5
:103EE00000BF70470CED00E00000FA057047024685
:103EF0001068416200207047F0B503461546186807
:103F0000446A21B944EA05401E68B06219E01868A5
:103F1000806A04EB1044002208E0186800F5827003
:103F200050F8220004EB1044501CC2B2481E9042CC
:103F3000F3D844EA0547186800F582704E1E40F831
:103F400026700020F0BD10B50446D4F8E00408F057
:103F500094FA10BD70B504460D4605EBC50304F197
:103F6000140101EB8301CA682946D4F8E00408F083
:103F700077F970BD70B504460D4605EBC50304F531
:103F8000157101EB8301CA682946D4F8E00408F0F2
:103F9000EFF970BD10B50446D4F8E00408F070FAEB
:103FA00010BD2DE9F04104460D4605F08000802843
:103FB00008D105F00F0000EBC00104F1140000EB84
:103FC000810607E005F00F0000EBC00104F5157055
:103FD00000EB81063146206809F0D4FC07463846DC
:103FE000BDE8F08170B504460E4606F080008028DA
:103FF0000AD106F00F0000EBC00104F1140000EB41
:1040000081050120687009E006F00F0000EBC00197
:1040100004F5157000EB81050020687006F00F00B4
:10402000287000BF94F89404012801D1022070BDCB
:10403000012084F8940400BF2946206809F030F874
:1040400000BF002084F8940400BF00BFEFE770B504
:1040500004460E4606F00F002179884201D901205E
:1040600070BD06F0800080280AD106F00F0000EB3A
:10407000C00104F1140000EB81050120687009E023
:1040800006F00F0000EBC00104F5157000EB810590
:10409000002068700020A87006F00F00287000BF94
:1040A00094F89404012801D10220D9E7012084F872
:1040B000940400BF2946206809F0F0F900BF0020F1
:1040C00084F8940400BF00BFCAE7024601F00F0065
:1040D00000EBC00302F5157000EB830040697047E8
:1040E0002DE9F04705460E4690461F464FF0000961
:1040F00006F0800080280AD106F00F0000EBC00116
:1041000005F1140000EB81040120607009E006F065
:104110000F0000EBC00105F5157000EB81040020D5
:10412000607006F00F002070C8F30A00A0602771CD
:10413000607808B120786083022F01D1002060717F
:1041400000BF95F89404012802D10220BDE8F08751
:10415000012085F8940400BF2146286808F0ACFED1
:1041600000BF002085F8940400BF4846EEE72DE923
:10417000F04105460E461746984606F00F0000EB44
:10418000C00105F5157000EB8104E760C4F81080EC
:1041900000206061607006F00F002070A87901288F
:1041A00000D1E761AA792146286809F00BFA0020BE
:1041B000BDE8F08170B504460D4605F00F00217989
:1041C000884201D9012070BD05F0800080280AD105
:1041D00005F00F0000EBC00104F1140000EB8106B4
:1041E0000120707007E005EBC50104F5157000EBC8
:1041F0008106002070700120B07005F00F00307053
:1042000000BF94F89404012801D10220DBE70120CB
:1042100084F8940400BF3146206809F086F905F05F
:104220000F0028B9A17904F29C42206809F0FEF839
:1042300000BF002084F8940400BF00BFC3E72DE94D
:10424000F04105460E461746984606F00F0000EB73
:10425000C00105F1140000EB8104E760C4F8108090
:10426000002060610120607006F00F002070A879C6
:10427000012800D1E761AA792146286809F0A2F94E
:104280000020BDE8F0812DE9FE4F0446D4F800B0CF
:104290005E46206809F08FFC002874D1206809F080
:1042A000C9FC08B9BDE8FE8F40F608008059C0F38C
:1042B0000D20C4F8D404206809F0BCFC00F0020012
:1042C000022805D12068406900F002002168486199
:1042D000206809F0AFFC00F01000102845D12068DC
:1042E000806920F0100021688861DBF8209009F0D7
:1042F0000F0000EBC00104F5157000EB810AC9F353
:10430000434002281AD147F6F07009EA000030B3A2
:10431000C9F30A125846DAF80C1009F090FCC9F3F8
:104320000A11DAF80C000844CAF80C00C9F30A11A3
:10433000DAF814000844CAF8140010E0C9F3434046
:1043400006280CD1082204F29C41584609F077FC5B
:10435000C9F30A11DAF814000844CAF814002068F6
:10436000806940F0100021688861206809F062FCD3
:1043700000F40020B0F5002F7BD10025206809F063
:1043800029FC029072E0E1E2029800F001000028AE
:1043900068D0E9B2206809F040FC804608F00100CE
:1043A00048B1012106F5306000EB451081602946D7
:1043B000204602F0F1FF08F00800082809D1082182
:1043C00006F5306000EB451081602946204602F07A
:1043D000B1FF08F01000102805D1102106F530605B
:1043E00000EB4510816008F00200022824D1DBF8C0
:1043F000140000F08000802807D140F604008059A6
:1044000040F4806140F60400815105EBC50104F5DC
:10441000157000EB810A9AF80300012806D10020EC
:104420008AF80300E9B2204600F09BFA022106F563
:10443000306000EB4510816008F02000202805D195
:10444000202106F5306000EB4510816008F4005033
:10445000B0F5005F06D14FF4005106F5306000EB77
:10446000451081606D1C0298400802900298002857
:104470008AD1206809F0DEFB00F48020B0F5802F9F
:104480007DD1206809F09CFB029000259AE00298FB
:1044900000F00100002873D0E9B2206809F0A4FB05
:1044A000804608F00100F0B305F00F0101208840BC
:1044B000019040F634008159019821EA000040F64D
:1044C00034018851012106F5106000EB4510816030
:1044D000A079012824D105EBC50104F1140000EBFB
:1044E000810005EBC502C16804F1140000EB8200F5
:1044F0008068014405EBC50204F1140000EB820062
:10450000C1606DB905EBC50104F1140000EB810039
:10451000006928B904F29C420121206808F086FF56
:10452000E9B2204600E001E0FFF714FD08F00800C2
:10453000082805D1082106F5106000EB45108160C0
:1045400008F01000102805D1102106F5106000EBCE
:104550004510816008F04000402805D1402106F553
:10456000106000EB4510816008F0020002281DD1A8
:104570002946584609F0ABFA05EBC50101E025E0F4
:104580001CE004F1140000EB810A9AF803000128F2
:1045900006D100208AF80300E9B2204600F0D8F9DD
:1045A000022106F5106000EB4510816008F08000E4
:1045B000802803D12946204602F090FF6D1C029806
:1045C00040080290029800287FF461AF206809F04B
:1045D00031FB00F00040B0F1004F1CD140F6040068
:1045E000805920F0010140F60400815194F8CC0478
:1045F000012807D1002084F8CC0400212046FFF7D1
:1046000075FC02E0204600F0E1FA2068406900F005
:10461000004021684861206809F00CFB00F400604C
:10462000B0F5006F0ED140F60800805900F001008F
:1046300010B1204600F022FB2068406900F40060C1
:1046400021684861206809F0F5FA00F48050B0F55F
:10465000805F7ED140F60400805920F0010140F6D1
:10466000040081511021206809F031FA002732E05E
:104670004FF67F3106F5106000EB4710816006F5BC
:10468000106000EB4710006820F4001106F5106080
:1046900000EB471001604FF67F3106F5306000EB0C
:1046A0004710816006F5306000EB4710006820F489
:1046B000001106F5306000EB4710016006F5306030
:1046C00000EB4710006840F0006106F5306000EB39
:1046D000471001607F1C2079B842C9D840F61C0001
:1046E000805940F0011140F61C008151E07B70B10F
:1046F000D6F8840840F00B01C6F8841840F6440050
:10470000805940F00B0140F6440081510FE040F623
:104710001400805942F22B01084340F614018851DD
:10472000081F805940F00B014FF401608151D6F809
:10473000000820F4FE60C6F80008A17904F29C424B
:10474000206808F073FE2068406900F480502168FA
:1047500000E000E04861206809F06CFA00F40050C5
:10476000B0F5005F17D1206808F00EFC206809F052
:104770000FFAE07100F05EFB0090E279206800998A
:1047800009F0E0FA204600F009FA2068406900F4D8
:10479000005021684861206809F04CFA00F00800D8
:1047A000082808D1204600F018FA2068406900F077
:1047B000080021684861206809F03CFA00F0800098
:1047C000802818D1DBF8180020F08000CBF8180002
:1047D00001250DE005EBC50104F5157000EB810026
:1047E000C078012803D1E9B22046FFF7DAFB6D1C3F
:1047F0002079A842EED8206809F01CFA00F4801055
:10480000B0F5801F2DD1012522E006F5106000EBE8
:104810004510D0F8009005EBC50104F1140000EB41
:1048200081000079012812D109F00040B0F1004F59
:104830000DD1012105EBC50204F1140000EB82004B
:10484000C170E8B240F080012046FFF7AAFB6D1C62
:104850002079A842D9D82068406900F480102168E6
:104860004861206809F0E6F900F40010B0F5001F77
:1048700044D1012538E006F5306000EB4510D0F852
:10488000009005EBC50104F5157000EB810000797F
:10489000012828D109F00040B0F1004F23D194F84D
:1048A000D40400F00100C9F3004188421BD101216A
:1048B00005EBC50204F5157000EB8200C170DBF852
:1048C000180040F08000CBF81800DBF8140000F06E
:1048D000800040B940F60400805940F4007140F671
:1048E0000400815103E06D1C2079A842C3D800BFA9
:1048F0002068406900F4001021684861206809F0D0
:1049000099F900F08040B0F1804F08D12046FFF7C0
:104910001AFB2068406900F08040216848612068E7
:1049200009F088F900F0040004280FD12068D0F8BD
:10493000049009F00400042802D12046FFF72AFB66
:104940002068406840EA09002168486000BFA9E487
:1049500070B504460D462946D4F8E00407F0FCFD86
:1049600070BD70B504460D462946D4F8E00407F042
:1049700017FE70BDF8B504460CB90120F8BD2668D5
:1049800094F8950428B9002084F89404204600F097
:10499000A1F8032084F89504B6F1A04F01D10021BD
:1049A000A171206808F03AFD207C8DF8000094E8A1
:1049B0000F0008F0FDFA20B1022084F895040120D0
:1049C000DCE70021206809F06AF920B1022084F8B0
:1049D00095040120D2E7002531E0012105EBC50255
:1049E00004F1140000EB8200417005EBC50104F1F5
:1049F000140000F8215005EBC50100EB8100458350
:104A0000002105EBC50204F1140000EB82000171E6
:104A100005EBC50204F1140000EB8200816005EB98
:104A2000C50204F1140000EB8200C16005EBC50271
:104A300004F1140000EB82000161681CC5B220790A
:104A4000A842CADC00252AE0002105EBC50204F5D6
:104A5000157000EB8200417005EBC50104F515707F
:104A600000F82150002105EBC50200EB8200017126
:104A700005EBC50204F5157000EB8200816005EBC3
:104A8000C50204F5157000EB8200C16005EBC5029C
:104A900004F5157000EB82000161681CC5B2207935
:104AA000A842D1DC207C8DF8000094E80F0008F0CB
:104AB000C1FB20B1022084F8950401205EE70020AC
:104AC0006074012084F89504206808F0A1FB0020A0
:104AD00054E7000010B586B00446142101A8FBF786
:104AE0007AFD2068B0F1A04F51D100BF00200090A6
:104AF0002848006840F00100264908600846006820
:104B000000F00100009000BF00BF4FF4C0500190C2
:104B10000220029001200390032004900A200590B7
:104B200001A91D48FEF7FCFF4FF4806001900220B0
:104B3000029000200390032004900A20059001A910
:104B40001548FEF7EDFF00BF1248001D006840F059
:104B500080001049091D086000BF002000900D482A
:104B60001430006840F480400A4914310860084657
:104B7000006800F48040009000BF00BF00BF00222A
:104B800005214320FFF760F94320FFF749F906B0FC
:104B900010BD0000303802400000024070B50446ED
:104BA0000125E07908B9002506E0E079022801D165
:104BB000012501E0FDF7F2FC2946D4F8E00407F0F6
:104BC00099FDD4F8E00407F03FFD70BD10B5044630
:104BD000D4F8E00407F06FFD10BD10B50446D4F81A
:104BE000E00407F073FD10BD70B504460D4600BF2C
:104BF00094F89404012801D1022070BD012084F8AA
:104C0000940400BF65742946206809F07CF800BF51
:104C1000002084F8940400BF00BFEEE710B50446FE
:104C200004F29C41D4F8E00407F07BFD10BD70B5A0
:104C30000446256800BF94F89404012801D102209D
:104C400070BD012084F8940400BFE86800F04000C3
:104C500030B1607B012803D1A86B40F48030A86399
:104C6000206808F005FF206808F0C0FA00BF0020A7
:104C700084F8940400BF00BFE2E7000010B50446CA
:104C8000D4F8E00407F0AAFD2068D0F8000E40F048
:104C900001002168C1F8000EE07A28B103480068DD
:104CA00040F006000149086010BD000010ED00E072
:104CB00070B504460D460CB9012070BD5848006817
:104CC00000F00700A84209D255490D700846006857
:104CD00000F00700A84201D00120EEE7207800F0A4
:104CE000020002281DD1207800F00400042805D11C
:104CF0004C48006840F4E0504A490860207800F0D1
:104D00000800082805D14748006840F4604045493C
:104D100008604448006820F0F000A1680843414959
:104D20000860207800F00100A8B36068012807D16E
:104D30003C4808380068C0F34040B8B90120BCE7DF
:104D40006068022802D06068032807D13548083817
:104D50000068C0F3406048B90120AEE73148083828
:104D60000068C0F3400008B90120A6E72D4800689C
:104D700020F00300616808432A490860FEF7D0FF6D
:104D8000064609E0FEF7CCFF801B41F288318842DD
:104D900002D9032091E707E02248006800F00C00E8
:104DA0006168B0EB810FEDD11D48006800F007008D
:104DB000A84209D91A490D700846006800F007009A
:104DC000A84201D0012078E7207800F004000428F0
:104DD00007D11448006820F4E050E1680843114905
:104DE0000860207800F00800082808D10D48006805
:104DF00020F46040216940EAC1000A49086000F0DF
:104E00003FF808490968C1F30311074A515CC840DB
:104E10000649086006480068FEF7B2FF00204CE72C
:104E2000003C024008380240001801083800002009
:104E30003000002001480068704700003800002062
:104E400000B5FFF7F7FF04490968C1F38221034A5F
:104E5000515CC84000BD000008380240101801082D
:104E600000B5FFF7E7FF04490968C1F34231034A7F
:104E7000515CC84000BD000008380240101801080D
:104E80002DE9F047002400250026A14625480068AA
:104E900000F00C0020B1042805D008283AD105E024
:104EA000DFF8849039E0DFF8849036E01D48001F79
:104EB000006800F03F041B48001F006800F48000F9
:104EC00078B11A481749091F0968C1F38811A0FB76
:104ED00001700146224600233846FBF745FA054695
:104EE0000EE011480F49091F0968C1F38811A0FBA2
:104EF00001700146224600233846FBF735FA054685
:104F00000848001F0068C0F30140401C4600B5FB84
:104F1000F6F902E0DFF8109000BF00BF4846BDE898
:104F2000F0870000083802400024F400001BB7009E
:104F3000F8B504460CB90120F8BD207800F0010056
:104F4000002874D0F948006800F00C0004280DD047
:104F5000F648006800F00C00082813D1F348001F41
:104F6000006800F48000B0F5800F0BD1EF480838DE
:104F70000068C0F34040002859D06068002856D12E
:104F80000120D9E700BF6068B0F5803F08D1E7484D
:104F90000838006840F48030E449083908601EE0B1
:104FA0006068B0F5A02F0DD1E0480838006840F4E3
:104FB0008020DE49083908600846006840F48030E7
:104FC00008600CE0D9480838006820F48030D749E0
:104FD000083908600846006820F48020086000BF97
:104FE000606890B1FEF79CFE054606E0FEF798FE6D
:104FF000401B642801D903209EE7CC48083800688C
:10500000C0F340400028F1D011E0FEF789FE0546CC
:1050100006E0FEF785FE401B642801D903208BE7DC
:10502000C24808380068C0F340400028F1D1207819
:1050300000F0020002285FD1BC48006800F00C00BC
:1050400058B1BA48006800F00C0008281CD1B748D5
:10505000001F006800F48000B0B9B4480838006848
:10506000C0F3400020B1E068012801D0012063E7CF
:10507000AE480838006820F0F800216940EAC10015
:10508000AA490839086037E0E06800B30120A84960
:105090000860FEF745FE054606E0FEF741FE401BB0
:1050A000022801D9032047E7A04808380068C0F368
:1050B00040000028F1D09D480838006820F0F80032
:1050C000216940EAC10099490839086014E00020CC
:1050D00097490860FEF724FE054606E0FEF720FE2D
:1050E000401B022801D9032026E7904808380068B1
:1050F000C0F340000028F1D1207800F00800082813
:105100002CD16069A8B101208A490860FEF708FE29
:10511000054606E0FEF704FE401B022801D90320E5
:105120000AE782486C300068C0F340000028F1D0E4
:1051300014E000207F490860FEF7F2FD054606E016
:10514000FEF7EEFD401B022801D90320F4E6774864
:105150006C300068C0F340000028F1D1207800F0E6
:105160000400042870D1002770483830006800F02F
:10517000805090B900BF002000906C483830006823
:1051800040F080506949383108600846006800F0F6
:105190008050009000BF00BF01276748006800F4FE
:1051A0008070B0B96448006840F48070624908605B
:1051B000FEF7B6FD054606E0FEF7B2FD401B0228ED
:1051C00001D90320B8E65C48006800F4807000282C
:1051D000F2D000BFA068012808D1544868300068A8
:1051E00040F001005149683108601DE0A0680528C1
:1051F0000DD14E486830006840F004004B496831DA
:1052000008600846006840F0010008600CE047486C
:105210006830006820F001004449683108600846A1
:10522000006820F00400086000BFA068A8B1FEF785
:1052300077FD054609E0FEF773FD401B41F288311A
:10524000884202D9032077E626E0384868300068B3
:10525000C0F340000028EED013E0FEF761FD0546E4
:1052600008E0FEF75DFD401B41F28831884201D91C
:10527000032061E62D4868300068C0F34000002834
:10528000EFD1012F07D129483830006820F0805035
:1052900026493831086000BFA069002845D023485E
:1052A000006800F00C0008285DD0A069022845D1F4
:1052B00000201F490866FEF733FD054606E0FEF7AD
:1052C0002FFD401B022801D9032035E61748083876
:1052D0000068C0F340600028F1D1D4E90701084319
:1052E000616A40EA81110122A06AC2EB500041EAE2
:1052F00000412C20005D41EA00600C49091F086054
:1053000001200B490866FEF70BFD054606E0FEF797
:1053100007FD401B022801D903200DE60348083889
:105320000068C0F340600028F1D049E0083802402E
:1053300000004742800E4742007000400020214993
:105340000866FEF7EDFC054606E0FEF7E9FC401BAB
:10535000022801D90320EFE51B480068C0F3406034
:105360000028F2D12CE0A069012800D1E4E516481C
:10537000001D0668A069012820D006F48001E069BC
:1053800081421BD106F03F01206A814216D147F6C7
:10539000C0703040616AB0EB811F0FD106F440311C
:1053A0000122A06AC2EB5000B1EB004F06D106F01B
:1053B00070612C20005DB1EB006F01D00120BBE5D6
:1053C0000020B9E5000047420038024010B504460D
:1053D0000CB9012010BD607920B900202071204651
:1053E00000F00EF8022060712068006840F00400B0
:1053F00021680860012060710020A06000BFE9E71B
:1054000008B50A4A016891420FD100BF00210091FE
:105410000749096841F04001054A116011460968D1
:1054200001F04001009100BF00BF08BD0008065018
:105430003438024010B504460CB9012010BD606A32
:1054400038B96068B0F5827F00D105E00021E161E4
:1054500002E00021216161610021A16294F8510004
:1054600028B9002084F85000204600F047F80220B8
:1054700084F851002068006820F04000216808602E
:10548000A08800F48270218901F404410843A189B5
:1054900001F400610843217C01F002010843217DF1
:1054A00001F001010843218B01F400710843217FC1
:1054B00001F0380108432021095D01F08001084313
:1054C000218D01F400510843216808600421A0697E
:1054D00001EA104094F8241001F0100108432168FB
:1054E00048602068C06920F400602168C86100201D
:1054F0006065012084F8510000209FE710B586B058
:105500000446142101A8FBF766F84B49206888423D
:105510007ED100BF002000904848006840F48050D1
:10552000464908600846006800F48050009000BFBB
:1055300000BF00BF0020009040481438006840F0D1
:1055400002003E49143908600846006800F0020075
:10555000009000BF00BF00BF002000900846006818
:1055600040F0010008600846006800F0010000906B
:1055700000BF00BF1820019002200290012003907C
:10558000032004900520059001A92D48FEF7C8FAD4
:1055900080200190022002900120039003200490BB
:1055A0000520059001A92748FEF7BAFA26482749A1
:1055B00008604FF0C0604860002124488160C160ED
:1055C0004FF480610161002141618161C1614FF44B
:1055D0004031016200214162FEF7C4F808B1FCF7D6
:1055E000DDFF00BF1948E064846300BF164818302F
:1055F000174908604FF0C06048604021144881603E
:105600000021C1604FF4806101610021416100E02F
:1056100010E08161C1614FF40031016200214162FB
:10562000FEF7A0F808B1FCF7B9FF00BF0848A06476
:10563000846300BF06B010BD003001404438024012
:10564000000402400000024040640240F8090020CB
:10565000580A00202DE9FE4F04460F4690461D468D
:105660000C9E01200190FEF75BFB814694F851B03F
:1056700060680290AA46BBF1010F0BD00298B0F50A
:10568000827F04D1A06810B9BBF1040F02D00220C0
:10569000BDE8FE8F1FB1B8F1000F00D00DB9012099
:1056A000F6E700BF94F85000012801D10220EFE78F
:1056B000012084F8500000BF94F85100042802D063
:1056C000052084F8510000206065C4F83880E58723
:1056D000A5872763E586A586206460642068006846
:1056E00000F04000402805D02068006840F04000ED
:1056F00021680860E068B0F5006F52D1606810B1B1
:10570000BAF1010F09D1206B00882168C860206BB5
:10571000801C2063E08E401EE0863BE020688068AD
:1057200000F00200022810D1E08E70B1019801282B
:105730000BD1206B00882168C860206B801C20631F
:10574000E08E401EE086002001902068806800F016
:10575000010068B1E08F58B12068C068A16B088073
:10576000A06B801CA063E08F401EE08701200190A9
:10577000FEF7D6FAA0EB0900B0420BD3701C48B17B
:10578000012084F8510000BF002084F8500000BFC1
:1057900003207DE7E08E0028C0D1E08F0028BDD136
:1057A00052E0606810B1BAF1010F09D1206B0078A6
:1057B00021680873206B401C2063E08E401EE08649
:1057C0003CE02068806800F00200022810D1E08EE2
:1057D00070B1019801280BD1206B00782168087303
:1057E000206B401C2063E08E401EE086002001906C
:1057F0002068806800F0010068B1E08F58B120682F
:10580000C068A16B0870A06B401CA063E08F401EB5
:10581000E08701200190FEF783FAA0EB0900B04277
:1058200001D3701C00B94EB9012084F8510000BFAB
:10583000002084F8500000BF032029E7E08E0028F4
:10584000BFD1E08F0028BCD14A463146204605F042
:1058500045F840B12020606500BF002084F850006A
:1058600000BF012014E7A06850B900BF00200090DD
:105870002068C068009020688068009000BF00BF6A
:10588000012084F8510000BF002084F8500000BFC0
:10589000606D08B10120FBE60020F9E670B5044612
:1058A0002546681EB0F1807F01D301200FE0681EFD
:1058B0004FF0E02148610F214FF0FF3008F0DAFC93
:1058C00000204FF0E021886107200861002070BDB2
:1058D00010B504460CB9012010BD94F83D0028B95C
:1058E000002084F83C00204600F026F8022084F8CE
:1058F0003D00211D206805F019F9012084F84600BB
:1059000000BF84F83E0001213F2001554020015591
:105910004120015500BF00BF012084F84200432010
:105920000155442001554520015500BF012084F850
:105930003D000020D0E7000008B50A4A0168914206
:105940000FD100BF002100910749096841F40031DF
:10595000054A11601146096801F40031009100BF49
:1059600000BF08BD004401404438024010B586B075
:105970000446142101A8FAF72EFE12492068884235
:105980001DD100BF002000900F48006840F02000AB
:105990000D4908600846006800F02000009000BF34
:1059A00000BF4020019002200290012003900220BD
:1059B00004900320059001A90448FEF7B1F806B051
:1059C00010BD000000440140303802400014024085
:1059D0002DE9F04104460D461646002700BF94F815
:1059E0003C00012802D10220BDE8F081012084F8AA
:1059F0003C0000BF36B1042E1BD0082E31D00C2E37
:105A00005ED145E02946206805F012F920688069DA
:105A100040F00800216888612068806920F0040057
:105A20002168886120688069296908432168886144
:105A300048E02946206805F033F92068806940F481
:105A40000060216888612068806920F48060216896
:105A5000886120688069296940EA0120216888619D
:105A600030E02946206805F059F92068C06940F007
:105A700008002168C8612068C06920F0040021681E
:105A8000C8612068C069296908432168C86119E0B4
:105A90002946206805F07EF92068C06940F400605E
:105AA0002168C8612068C06920F480602168C861ED
:105AB0002068C069296940EA01202168C86101E0C5
:105AC000012700BF00BF00BF002084F83C0000BFDA
:105AD000384689E710B504460CB9012010BD94F88A
